:020000040000FA
:10000000E2A3040002000000602000002E0C0000AB
:10001000340C00003E0C0000440C00004C0C0000AE
:1000200060200000602000006020000060200000D0
:10003000602000006E0A00006020000060200000C8
:100040006020000054180000EE180000602000003E
:100050006020000016160000BE1500008602000099
:100060006020000060200000200400001804000050
:100070006020000060200000602000006020000080
:100080006020000060200000602000006020000070
:100090006020000060200000602000006020000060
:1000A0006020000060200000602000006020000050
:1000B0006020000060200000602000006020000040
:1000C0006020000060200000602000006020000030
:1000D0006020000060200000602000006020000020
:1000E0006020000060200000602000006020000010
:1000F0006020000060200000602000006020000000
:1001000060200000602000006020000060200000EF
:1001100060200000602000006020000060200000DF
:100120006020000060200000602000001817000020
:1001300060200000602000006020000060200000BF
:1001400060200000602000006020000060200000AF
:10015000602000006020000060200000602000009F
:10016000602000006020000060200000602000008F
:10017000602000006020000060200000602000007F
:10018000602000006020000060200000602000006F
:10019000602000006020000060200000602000005F
:1001A000602000006020000060200000602000004F
:1001B000602000006020000060200000602000003F
:1001C000602000006020000060200000602000002F
:1001D000602000006020000060200000602000001F
:1001E000602000006020000060200000602000000F
:1001F00060200000602000006020000060200000FF
:10020000FFFFFF00FFFFFF0060200000580C000010
:100210005E0C0000640C00006A0C0000700C000012
:1002200060200000602000006020000060200000CE
:10023000602000006E0A00006020000060200000C6
:100240006020000054180000EE180000602000003C
:100250006020000016160000BE1500008602000097
:10026000602000006020000020040000180400004E
:10027000602000006020000060200000602000007E
:10028000602000006020000060200000602000006E
:10029000602000006020000060200000602000005E
:1002A000602000006020000060200000602000004E
:1002B000602000006020000060200000602000003E
:1002C000602000006020000060200000602000002E
:1002D000602000006020000060200000602000001E
:1002E000602000006020000060200000602000000E
:1002F00060200000602000006020000060200000FE
:1003000060200000602000006020000060200000ED
:1003100060200000602000006020000060200000DD
:10032000602000006020000060200000181700001E
:1003300060200000602000006020000060200000BD
:1003400060200000602000006020000060200000AD
:10035000602000006020000060200000602000009D
:10036000602000006020000060200000602000008D
:10037000602000006020000060200000602000007D
:10038000602000006020000060200000602000006D
:10039000602000006020000060200000602000005D
:1003A000602000006020000060200000602000004D
:1003B000602000006020000060200000602000003D
:1003C000602000006020000060200000602000002D
:1003D000602000006020000060200000602000001D
:1003E000602000006020000060200000602000000D
:1003F00060200000602000006020000060200000FD
:10040000839F68000100E00002003D0060001000D2
:10041000E08018000300E00002003D0060011100D0
:10042000E0811900050007004F00E00002003B00DA
:1004300060001000E0801800000006006022B80094
:10044000060220000000D0008180D2000482D20089
:100450008582D2000000A0000202520083825A006E
:10046000030031000202420083824A000000A10022
:100470000603E900F3FF3A00000006000000FA005E
:100480002A03A9002A23A9002A43A9002A63A90054
:100490002A83A9002AA3A9002BA3A9002BC3A90082
:1004A00040042000001988002143A8000000260015
:1004B00010198800F0322000201988000000EB009D
:1004C000801988006CC9BF000080FB0040198800BB
:1004D00085A0A900A10A20009140780000C7B300C0
:1004E00000C07000AAE0B70095A0A8000000EB00D3
:1004F000704688006CC9BF000080FB00401988006E
:1005000021E3A8000080FA0000000600809FBE00E2
:10051000829FBE00849FBE00869FBE000200FA003C
:1005200000188000000F780076468000704680003A
:10053000C200DD00008D2000008040001001BE00E0
:100540001E0078006102B80070468000C200DD0025
:10055000008D2000008040001000BE00C70BDD00B1
:100560004900DE0000807300C908DE000000520070
:1005700081805A000201400083814800C230DD00C2
:10058000008D2000008040000288BE00734680007D
:1005900070468000C200DD00008D20000080400019
:1005A0001000BE004709DD004900DE0000007100B8
:1005B000C908DE000001780083804100E08B200044
:1005C0000080400002087800704680000000E800CB
:1005D0007046880070468000E70F50000200360029
:1005E0000000EB007046880071468000C096200035
:1005F00000804000104078000080FB004019880017
:1006000085A0A9000080FA004F03BE004F02BE0083
:100610004F01BE004F00BE00004006000600FA0079
:10062000889FBE00200798002E0090006104B8004B
:100630002E0090006102B800880078000400780065
:10064000000BB80005C0B9000701780000014100A7
:1006500009A0B900000141008203780002022100D4
:10066000230020000600BE0000020200000000007F
:100670000004BE002E0090006103B80086007800E0
:10068000008D2000000AB8006030B9000501780034
:1006900000014100008D200000B8B90000014100B8
:1006A0008202780070E32E0021FC2F00040040003D
:1006B0008580480002712200030020000002020031
:1006C00000000000001F440001974C00AE009000A5
:1006D000A0FF2000808F500003003600108F2D00F7
:1006E000F1FF2F00008FBE00AE009000B05D200033
:1006F000808F500003003E00108F2D00F1FF2F006F
:10070000008FBE001E0078004F04BE000080FA007B
:10071000000006000A00FA0030079800BE009000B2
:10072000108F2D00808F500003003A00F0FF200052
:10073000400798001C0037003E009000C200DD001A
:100740000064200000804000200798004006200040
:10075000000F780010002000100798000D003700EF
:100760002E009000ADFF0700800078003E00900052
:1007700001005000100798009E0090002E0090008D
:1007800001004000200798001E0FE9001E00E00055
:10079000030032001E0090000000E000F0FF3A006D
:1007A0002E009000400798004E0090000080FA0054
:1007B000000006000000FA0007E2A9009600A90068
:1007C0009620A900E462A800DEC2A80007A2A90042
:1007D0000762A9000742A9000722A8000702A80093
:1007E000A0162000201088000722A9008600A9007A
:1007F0008620A900ACC0BF007040B300ACE0B700D9
:10080000C10A200091407800F0C8B30000C0600029
:1008100001C4B30001407000ACE0B7009600A9002D
:100820009620A80007E2A8000080FA000000060059
:100830000000FA008620A9000080FA0000400600AF
:100840000000FA008600A900FFFF37000000FA0050
:100850004110800000002400808060003010800083
:100860007F006000008070000080FA000000060039
:100870000200FA0000A62E00000F780005003700E5
:100880001E0FE90000000000000000000000000052
:1008900000000000EDFF07000000E0000200320051
:1008A0001E00E000F6FF3A000080FA00000006009B
:1008B0000000FA00EEFF07000602A8000080FA0020
:1008C000000006000000FA00E9FF07000622A80069
:1008D0000080FA00000006000000FA00E4FF0700B4
:1008E0000642A8000080FA00000006000400FA009A
:1008F000004F7800DEFF07001E80FB00101088000C
:10090000DBFF0700912020009140780000C8B30071
:1009100000C060008000EB00110798000004E000B8
:1009200002003A0010002000100798001E009000FE
:100930000080FA00000006000400FA00100798008A
:10094000CBFF07000662A800C9FF07000010800067
:10095000000F78001E0090000000E000020032004E
:1009600006A2A9000100370006A2A8000682A8007E
:100970001E0078000080FA00000006000600FA0061
:10098000204798003147980022079800C8FF0700C9
:10099000E1CFB3002E40900000C06000D3FF0700FD
:1009A000000F78003E409000D0FF07001E0F60004F
:1009B0001E00E0000A003200C2FF07002E40900037
:1009C0000004A000C9FF07001E0F60000000EB003C
:1009D000D9FF0700804078002E0090000148780081
:1009E000BDFF07000080FA00000006000400FA00C6
:1009F000004F78001147980022479800ACFF07008D
:100A0000E0CFB3001E406000B8FF07001E4090001A
:100A1000B6FF07002E409000B4FF0700AEFF0700AE
:100A20000080FA00000006001600FA00404F98000F
:100A300071079800020F9800130F98001E0890008D
:100A40000000E000060032004E4890000004E00084
:100A5000030032000E0890000000E00003003A009E
:100A60000000EB00200F9800680037000040EB000A
:100A7000104798000000EB00100798007E009000DF
:100A8000400798008AFF0700E1CFB3004E4890006E
:100A900000C0600095FF07000000E0005800320031
:100AA0007E0090004800DE0090FF07000000E0009C
:100AB000530032007E0090008CFF07000000E00031
:100AC0004F0032001E009000500798003A00370097
:100AD0001E4090000004E000210032004E00900013
:100AE000F1072000010060000000E0001C003A0057
:100AF00079FF07000000EB00300798000D00370079
:100B00000000EB0020079800030037002E00900043
:100B10000000E80020079800AE009000F052270087
:100B2000808F5000F9FF36003E0090000000E80082
:100B300030079800BE00900010032000808F500006
:100B4000EFFF36005E009000100798004E00900006
:100B5000700798000040EB0010479800C9FF37006D
:100B60000E089000104F7800DE0090000E089000F4
:100B700000804000104078005CFF07000000E000AB
:100B800004003A0054FF07000000EB00200F98001B
:100B90001E0037004E0090000000E800400798005B
:100BA0001E4090000040E800104798005E00900052
:100BB0000000E80050079800DE0090001E0890003A
:100BC000808F5000C2FF39000000EB002007980022
:100BD000030037002E0090000000E8002007980076
:100BE000AE009000F0522700808F5000F9FF3600D1
:100BF00039FF070010002000200F98000300370085
:100C000035FF07000000EB00200F98002E08900031
:100C10000080FA00000006000A00FA00000F7800C9
:100C2000110798002207980033079800440798009E
:100C30001E0078009E009000010878001E007800D9
:100C4000AE009000110098001E007800BE009000D9
:100C5000210098001E007800CE009000310098001E
:100C60001E0178006000B800000998001109980082
:100C70009E0078000000EB00C00098001E01780084
:100C80006000B80050019800610198009E00780053
:100C90000000EB00F00098000080FA000000060061
:100CA0001400FA00889FBE002007980031079800C2
:100CB0002E009000BE009000410098002E00900091
:100CC00050019000E00190002E0090004000900044
:100CD000CF80DE0002004000838048002E0190009B
:100CE00050019800610198002E009000C001900012
:100CF0002E00900090089000000890004200200014
:100D0000110009000200D800808051002E009000E0
:100D1000710098002E00900050019000E0019000BA
:100D2000F0FF270001002000800F5100818F590043
:100D3000050034002E019000F0FF27000100200084
:100D400050019800610198002E0090005001900021
:100D5000E001900010002800F1FF2F00800F5100EB
:100D6000818F590005003D002E01900010002800E1
:100D7000F1FF2F0050019800610198002E009000B3
:100D8000100078006104B9002E009000400090002F
:100D90006102B9008800780004007800000BB800F8
:100DA00005C0B900070178000001410009A0B900A1
:100DB0000001410082037800420620000300200069
:100DC0000600BE000002020000000000008FBE000E
:100DD0002E009000100090006104B9002E009000D9
:100DE00050029000E0029000880078000400780033
:100DF000000BB80005C0B9000701780000014100F0
:100E000009A0B900000141008203780042062000D9
:100E1000030020000600BE000002020000000000E7
:100E20001E0F40005E9748002E00900020009000AA
:100E30006104B9002E009000700090006102B900BA
:100E40008800780004007800000BB80005C0B900E5
:100E5000070178000001410009A0B900000141002C
:100E60008203780042062000030020000600BE0036
:100E700000020200000000001E0F40005E974800C4
:100E80002E009000300090006102B90084007800CC
:100E90001E007800000BB8001E00900000A0B900F2
:100EA00007017800000141001E0078000580B900AC
:100EB0000001410082037800420620000300200068
:100EC0000600BE000002020000000000008FBE000D
:100ED000F0FF270001002000BE0F1000AE8F1800A9
:100EE0000E003400F0FF270001002000008FBE003C
:100EF0002E00900050019000E00190002E00900024
:100F000040009000CF80DE00000051008180590039
:100F10002E01900050019800610198001E00BE0053
:100F2000E00F5000E08F58000D003D006000B80059
:100F3000008FBE002E00900050019000E001900054
:100F40002E00900040009000CF80DE000000510095
:100F5000818059002E019000500198006101980095
:100F60002E00900000099000900990006207980000
:100F7000730798002E009000400090006101B900B6
:100F800042079800530798002E00900090089000A8
:100F900000089000000F9800110F98000E089000B4
:100FA0009E089000E00F5000E08F580006003D00C2
:100FB0000E0990009E09900063014100E081490004
:100FC000020F9800130F98000E0990009E099000E0
:100FD0004E1ADD004210DE0000007200C298DE00F2
:100FE0004E019000DE019000000051008180590008
:100FF0006E019000FE0190000200400083804800D6
:101000002E01900000099800110998001E00780038
:1010100072142000110009000200D8004F04BE0025
:101020000080FA00000006000000FA000000EB005B
:10103000200C88000000EB00100C88008461A800E0
:101040000000EB00000C880041182000914078005F
:1010500080CFB30000C060006040B30084E1B700FF
:101060000000EB00500C88000000EB00400C8800F2
:101070008A61A8000000EB00300C8800A118200055
:101080009140780080CFB30000C060006040B300A2
:101090008AE1B7000000EB00800C88000000EB0044
:1010A000700C88009061A8000000EB00600C8800C4
:1010B000011920009140780080CFB30000C060008B
:1010C0006040B30090E1B7000000EB00B00C880076
:1010D0000000EB00A00C88009661A8000000EB0067
:1010E000900C8800611920009140780080CFB300F7
:1010F00000C060006040B30096E1B7000000EB0064
:10110000E00C88000000EB00D00C88009C61A80077
:101110000000EB00C00C8800C1192000914078004D
:1011200080CFB30000C060006040B3009CE1B70016
:101130000000EB00100D88000000EB00000D88009F
:10114000A261A8000000EB00F00C8800211A20002A
:101150009140780080CFB30000C060006040B300D1
:10116000A2E1B7000000EB00400D88000000EB009A
:10117000300D8800A861A8000000EB00200D880059
:10118000811A20009140780080CFB30000C0600039
:101190006040B300A8E1B7000080FA00000006003C
:1011A0000200FA00000F78001E0078004600DE0002
:1011B000000C88000080FA00000006000200FA001F
:1011C000000F78001E0078004600DE00300C88001A
:1011D0000080FA00000006000000FA000000EB00AA
:1011E000200888008460A900510A200091407800FE
:1011F000F0C8B30000C060000044A000A5E0B70044
:101200009460A8000421A9004110200091407800BA
:10121000F0CCB30000C0600001C2B3000140700018
:1012200004E1B700102720001008880005E1A8009D
:101230000080FA00000006000200FA00000F7800AB
:101240008CC8BF00614060000004E000150032005F
:1012500085C9BF000004E00010003A001E00E00055
:1012600003003C000000EB00000F7800D4E2A9006E
:10127000000120009E0F100003003C000000EB0066
:10128000000F7800D4E2A900400620009E0F100055
:101290000200340040062000000F78001E00780095
:1012A000804088000080FA00000006000200FA007A
:1012B000000F78008CC8BF00624060000004E000AE
:1012C000120032001E00E00003003C000000EB00B2
:1012D000000F7800E602A900000120009E0F100018
:1012E00003003C000000EB00000F7800E602A900BC
:1012F000400620009E0F100002003400400620002F
:10130000000F78001E007800704088000080FA000E
:10131000000006000400FA001007980040062000B4
:10132000000F780062C9BF00704060000004E00058
:101330002300320066C9BF00E24F500010003A009F
:101340002EC9BF000080FB0080004000A08220006A
:1013500000804000900078001E009000808F5000B8
:1013600039003D002EC9BF000080FB008000400016
:10137000A082200000804000100F7800320037006B
:101380002EC9BF000080FB00800040006085200067
:1013900000804000900078001E009000808F500078
:1013A00029003D002EC9BF000080FB0080004000E6
:1013B0006085200000804000100F78002200370078
:1013C00066C9BF00E24F500010003A002EC9BF00AE
:1013D0000080FB008000400000842000008040006E
:1013E000900078001E009000808F500016003D0095
:1013F0002EC9BF000080FB00800040000084200058
:1014000000804000100F78000F0037002EC9BF0089
:101410000080FB0080004000C0862000008040006B
:10142000900078001E009000808F500006003D0064
:101430002EC9BF000080FB0080004000C086200055
:1014400000804000100F78001E0078000080FA0035
:10145000000006000200FA0080408000ADFF070097
:10146000000F780077C9BF000004E00007003200D9
:1014700077C9BF000080FB009E0F500003003D00B5
:1014800077C9BF000080FB00000F78001E007800C5
:101490000080FA00000006000200FA0070408000A0
:1014A0009CFF0700000F780076C9BF000004E00031
:1014B0000700320076C9BF000080FB009E0F50007D
:1014C00003003D0076C9BF000080FB00000F7800DC
:1014D0001E0078000080FA00000006003600F800C8
:1014E000809FBE00829FBE00849FBE00869FBE007C
:1014F0000000FA00E6C2BF00624060000004E000A5
:1015000008003A00E0C2BF00614060000004E00053
:1015100004003A00E0C2BF00624060000004E00046
:10152000020032006289A900200037008CC8BF0089
:10153000704060000004E0001C00320002C8BF00E0
:101540000040E80002E8B7002180200091407800C8
:1015500040C6B30080CF50001400360010C0B30066
:1015600002E8B700204080000000E800204088002A
:101570002140800040062000808F5000020036008D
:101580001000200020408800214080003040800072
:10159000808F500004003E006289A8008007200070
:1015A00040408800010037006289A9005040800057
:1015B0000000E800504088005140800040062000B4
:1015C000808F50001400340085C9BF000004E00083
:1015D0000300320010002000504088000E00370049
:1015E000904080000000E80090408800904080001B
:1015F000E90F5000020034000000EB00904088002A
:101600009040800080004000608120000080400009
:1016100010007800504088008CC8BF006140600016
:101620000004E000240032008AFF070080007800F8
:1016300050408000808F50001A00350051408000DB
:1016400080408000808F500010003C00A14B800043
:1016500070072000808F500006003E00D4E2A800F2
:10166000A04080000000E00013003200E602A80065
:1016700011003700D4E2A900A04080000000E00083
:101680000D003200E602A9000B003700D4E2A900E9
:10169000A04080000000E00007003200E602A90040
:1016A00005003700D4E2A900A04080000000E0005F
:1016B00001003200E602A9008CC8BF006240600051
:1016C0000004E0001E003200A04080000000E000A6
:1016D0001B003A00504080002003B00060408800AA
:1016E0006140800040062000808F500004003400DC
:1016F00060408000C1F92F00010040006040880078
:1017000065FF07008000780060408000808F5000F7
:101710000A0034006140800070408000808F5000DB
:1017200007003C00A14B800070072000808F500014
:1017300003003E00E602A80001003700E602A9000F
:10174000C04B80000000E00004003400C04B80006B
:101750000000E900C04B880007003700805080007F
:101760000000E000040032000080EB00C04B880065
:101770000000EB0090508800204480000000E00052
:1017800003003400204480000000E9002044880069
:10179000104480000000E00003003400104480008A
:1017A0000000E9001044880001408000703E2000E5
:1017B000808F500004003E00004080000000E800E0
:1017C000004088001D0037000000EB00004088004A
:1017D000E6C2BF00624060000004E00008003A007A
:1017E000E0C2BF00614060000004E00004003A0075
:1017F000E0C2BF00624060000004E000040032006C
:10180000A04B80000000E800A04B880002003700D9
:101810000000EB00A04B8800404080000000E0008A
:1018200005003200404080000000E9004040880090
:1018300062C9A8000100370062C9A9008460A9003C
:101840000080FA004F03BE004F02BE004F01BE00F1
:101850004F00BE003600F900004006000000FA000C
:101860008020A900FFFF37000000FA008060A90077
:10187000000000000080FA00004006000000FA00AE
:101880008040A900FFFF37000000FA008080A90017
:101890000080FA0000400600801F78000000FA0077
:1018A0000000EB00001C880080A0A900FFFF3700AB
:1018B0000000FA008020A900FFFF37000000FA00B6
:1018C0008060A900FFFF37000000FA008040A900F7
:1018D000FFFF37000000FA008080A900FFFF3700FB
:1018E000801F78000000FA000000EB00001C880058
:1018F00080A0A900FFFF37000000FA00DA03020011
:101900000000000014080200000000003E02020077
:10191000000000003015020000000000B2190200B3
:101920000000000008110200000000000040EB0071
:1019300064E9B7000040EB0062E9B7000041EB004A
:101940008040EB0020C4B300F60402000000000059
:101950000041EB008040EB0020C4B300F60402001D
:10196000000000000041EB008040EB0020C4B30009
:10197000F604020000000000D4E2A900E602A9007B
:101980000041EB0011C0B300A0C9B300F60402008F
:10199000000000000080FA00000006000000FA00CD
:1019A00060022000303A88000000EB00203A8800F6
:1019B0004227A90040A7A900EC080200000000008F
:1019C000F4170200000000002818020000000000C8
:1019D0000000FC0000003700E0488000E10F5000EC
:1019E00005003A009E17020000000000C2FF070039
:1019F00020002000E0488800F04880000000E0005F
:101A00001C003200004980000000E00004003A00A1
:101A1000080F020000000000A00F2000004988000D
:101A2000104980000000E00004003A004611020066
:101A30000000000080BB2000104988002049800081
:101A40000000E00004003A00F81902000000000065
:101A50002003200020498800304980000000E00079
:101A600004003A00AA140200000000003000200028
:101A700030498800804A80000000E00012003200F7
:101A8000B8170200000000000000E0000E00320065
:101A90004C170200000000000000E0000A003200C5
:101AA0000040EB00E8170200000000000000EB001F
:101AB000804A8800803E20004049880010C0B30062
:101AC0002CE9B700E102A9002CC9BF000004E00026
:101AD0000C003200404980000000E00009003A009C
:101AE000E102A8000040EB002CE9B7008C170200CF
:101AF0000000000080BB20005049880010C0B300E7
:101B00002DE9B7002DC9BF000004E000B2FF32008C
:101B100051498000B05D2000808F500001003C00E2
:101B2000E102A900504980000000E000AAFF3A004D
:101B30000040EB002DE9B7000000FE00A6FF3700D3
:101B40000400FA00100798001E0090000000E0005A
:101B500005003A000040EB005CE9B7000000EB0034
:101B6000A04A88000700370010C0B3005CE9B70046
:101B7000A04A80000000E00002003A0010002000AF
:101B8000A04A88009E00900040062000808F5000F0
:101B90000200340040062000100798001E0090004C
:101BA00052002000110009000200D8008000FD0052
:101BB000000F78001E00E000080032002000200026
:101BC0009E0F1000020034001E007800650F5000C8
:101BD0001E0090001E005000100798001E0090008C
:101BE000C04A88000080FA00000006000400FA00E5
:101BF000100798001E0090000000E00005003A0069
:101C00000040EB005DE9B7000000EB00B04A88003F
:101C10000700370010C0B3005DE9B700B04A80008C
:101C20000000E00002003A0010002000B04A8800E6
:101C30009E00900040062000808F5000020034007B
:101C400040062000100798001E009000520020005F
:101C5000110009000200D8008000FD00000F78008C
:101C60001E00E00008003200200020009E0F10003F
:101C7000020034001E007800650F50001E00900026
:101C80001E005000100798001E009000D04A8800E7
:101C90000080FA00000006000200FA005CC9BF00E4
:101CA0000004E00003003A005DC9BF000004E0004A
:101CB0000300320010002000000F780002003700FF
:101CC0000000EB00000F78001E0078000080FA0092
:101CD000000006000000FA00EFFF07000000E0002F
:101CE0003C0032007CC9BF000004E00004003A0060
:101CF0006209A80010C0B3007CE9B70042003700B9
:101D0000A04A80000000E0003F0032007DC9BF0013
:101D10008080FB008DC8BF000080FB000000D10068
:101D2000614060000080FB00808F50001600320090
:101D300062C9BF00614060000004E000040032009E
:101D40006209A90010C0B3007EE9B70007003700A0
:101D500062C9BF00624060000004E000030032007E
:101D60006229A90020C0B3007EE9B700800C2000E2
:101D7000D04B88008DC8BF000080FB000000D10060
:101D8000614060007DE9B700D04B80000000E000BA
:101D90001D003200D04B80000000E900D04B8800CD
:101DA000D04B80000000E00017003A007EC9BF0061
:101DB000E14F500002003A006229A80012003700EB
:101DC0007EC9BF00E24F50000F003A006209A80030
:101DD0000D0037008DC8BF000080FB000000D1005F
:101DE000614060007DE9B7000040EB007EE9B7008C
:101DF0000000EB00D04B88000040EB007CE9B7000E
:101E00006209A9006229A9000080FA00000006000A
:101E10000C00FA005CC9BF000004E000770032004B
:101E200064C9BF00614060000004E00005003200AA
:101E3000A04A8000E30F500002003A00100020008A
:101E4000A04A8800A04A800050079800DE00900059
:101E5000E18F5000120032005E009000E10F500050
:101E600007003900DE009000E28F500015003200BC
:101E70005E009000E30F500045003200680037001C
:101E8000A0002000D0080200000000002EC9BF0002
:101E9000E44F5000620032006209A9006000370080
:101EA0002EC9BF00E44F5000010032006209A800B3
:101EB0000000EB00F04A880020002000A04A8800C3
:101EC00057003700F14A8000410798000040EB00BE
:101ED00060479800CE009000EF8F5000020036005F
:101EE00010C0B30060479800CE0090000100E800E9
:101EF000F04A88006E4090000004E0004800320084
:101F000064C9BF00614060000004E0000A003200C4
:101F10002EC9BF00E44F5000010032006209A90041
:101F2000A0002000D00802000000000010002000E7
:101F3000A04A88003A00370030002000A04A8800FC
:101F4000C04A80006103B90086007800B0262F00E7
:101F5000000AB8006030B9000501780000014100B6
:101F6000B0262F0000B8B9000001410082027800BD
:101F700042062000030020000400BE000002020010
:101F800000000000D008020000000000240037001C
:101F900064C9BF00614060000004E000030032003B
:101FA0000000EB00A04A88001D003700C04A8000F6
:101FB0006103B90086007800B0262F00000AB8003F
:101FC0006030B9000501780000014100B0262F0003
:101FD00000B8B900000141008202780042062000EA
:101FE000030020000400BE00000202000000000008
:101FF000D008020000000000090037000000EB00DC
:10200000D0080200000000002EC9BF00E44F5000BD
:10201000010032006209A9000000EB00A04A88001C
:102020005DC9BF000004E0006E00320064C9BF005B
:10203000624060000004E00005003200B04A800009
:10204000E30F500002003A0010002000B04A880060
:10205000B14A8000210798002E009000E10F500047
:102060000F003200AE009000E18F500007003900F1
:102070002E009000E20F50000F003200AE009000E2
:10208000E38F50003C0032005F003700A0002000CA
:10209000DE080200000000006229A9005A00370093
:1020A0006229A8000000EB00004B880020002000FF
:1020B000B04A880054003700004B80001007980099
:1020C0008040EB00014F78001E009000EF0F5000A1
:1020D0000200360011C0B300014F78009E0090004E
:1020E0000100E800004B88001E4078000004E0007A
:1020F0004500320064C9BF00624060000004E00097
:10210000070032006229A900A0002000DE080200BA
:102110000000000010002000B04A88003A0037009C
:1021200030002000B04A8800D04A80006103B90026
:1021300086007800B0262F00000AB8006030B90091
:102140000501780000014100B0262F0000B8B90059
:1021500000014100820278004206200003002000B6
:102160000400BE000002020000000000DE080200C1
:10217000000000002400370064C9BF006240600016
:102180000004E000030032000000EB00B04A8800C9
:102190001D003700D04A80006103B9008600780036
:1021A000B0262F00000AB8006030B90005017800A1
:1021B00000014100B0262F0000B8B9000001410025
:1021C0008202780042062000030020000400BE00C6
:1021D0000002020000000000DE0802000000000013
:1021E000090037000000EB00DE08020000000000DC
:1021F0002EC9BF00E44F5000010032006229A9003F
:102200000000EB00B04A88000080FA0000000600E1
:102210000000FA00047D2000831A2600320020000E
:1022200001F42100809020000C0602000000000054
:102230002EC9BF00E54F5000030032002EC9BF0079
:10224000E64F500008003A00843E20008001EB0079
:102250000001EB0001712200408F20000C060200FB
:102260000000000007003700C45D200003E82300E1
:1022700052002000017D2000408F20000C0602004B
:10228000000000000080FA00000006000000FA00D4
:102290004C0E0200000000000000E0006800320068
:1022A000004C80008A0302000000000080007800DB
:1022B000F04580000080500080478800F047800093
:1022C00001488000E00F5000E08F580003003D00FF
:1022D0006000B800F047880001488800804780000F
:1022E000FE0F400006003D000000EB009047880014
:1022F0006000B800F04788000148880017003700E8
:1023000081478000C0032000808F5000030034000C
:10231000400620009047880010003700804780006A
:102320000000E00006003D0081478000408F200053
:1023300050060200000000009047880007003700A8
:10234000804780000000400080007800408F20001F
:10235000500602000000000090478800904780006F
:102360001C09020000000000A04080000000E00006
:1023700039003A00104C80008A030200000000007F
:102380008000780000468000008050008047880070
:1023900090488000A1488000E00F5000E08F580076
:1023A00003003D006000B80090488800A148880004
:1023B00080478000FE0F400006003D000000EB005B
:1023C000904788006000B80090488800A1488800C5
:1023D0001700370081478000C0032000808F500025
:1023E00003003400400620009047880010003700AA
:1023F000804780000000E00006003D00814780002B
:1024000080902000500602000000000090478800E5
:1024100007003700804780000000400080007800FF
:1024200080902000500602000000000090478800C5
:1024300090478000560902000000000006003700A7
:102440000000EB001C090200000000000000EB008F
:1024500056090200000000000080FA00000006009B
:102460000400FA00600020001007980060002000BF
:10247000000F78000C0037001E0190009E007800CD
:10248000009D20000080400090407800608820007F
:1024900000004100014878001E0090000000E800A4
:1024A000100798001E0FE800600120009E0F10002A
:1024B000F1FF34000080FA00000006000200FA007C
:1024C0000000EB00000F78008CC9BF000080FB000B
:1024D0001E0F40008DC9BF000080FB001E0F400092
:1024E0008EC9BF000080FB001E0F40008FC9BF00D7
:1024F0000080FB001E0F40001E007800021020002C
:10250000110009000200D8008000FD008000780062
:1025100000102000010F50001E0078000080FB001A
:102520000080FA00000006001000FA00204F98001A
:1025300061079800720798000000EB0040079800C0
:102540000000EB00300798000000EB001007980037
:10255000220037001E009000800078006E0090007E
:102560000080400090407800414798004E40900025
:102570008080FB004E009000010040004007980062
:10258000CE009000E00F2000808F50000400360045
:102590004E00900011F02F0001004000400798000D
:1025A000BE0090004E009000008040003007980070
:1025B000BE009000E00F2000808F50000400360025
:1025C0003E00900011F02F000100400030079800FD
:1025D0001E0090000000E800100798009E00900088
:1025E0007E009000808F5000DAFF35002E4890006A
:1025F000E14F50001B003A00CE0090003E009000DA
:1026000000804000F20F2000110009000280D80075
:102610008000FD008040780000C0EB0001405000C9
:10262000104798001E4090008080FB004E009000F4
:1026300000804000F20F2000110009000280D80045
:102640008000FD008040780000C0EB00014F50008A
:102650001E80FB00300798001E4090000080FB00A9
:10266000400798003E009000C800DD004E0090003A
:10267000008070000080FA00000006000800FA00E8
:102680000000EB0030079800500020002007980061
:10269000A0CAB3008CE9B70050C5B3008DE9B700FC
:1026A000C0C0B3008EE9B70020C0B3008FE9B70007
:1026B0000E0037002E019000BE00900040942000D4
:1026C0000080400090407800C09820000000410049
:1026D000014878002E0090000000E80020079800D4
:1026E0003E0090000000E800300798003E00900097
:1026F000E50F5000EFFF34003E0090000000E800BE
:1027000030079800AE009000C09820008080400004
:102710000040EB00804878003E00900000C0E800D8
:102720008FE9B70065FF070090E9B7002E00900021
:102730000000E800200798002E019000C1982000BA
:1027400010C0B30078FF0700000F78001E0078006B
:10275000304798001E0078004800DE0020479800AF
:10276000AE009000C098200000804000BE40900065
:10277000014878002E0090008000E800C0982000FA
:1027800000804000AE409000014878008FC9BF0033
:102790000080FB0086150200000000000080FA00A7
:1027A000000006000800FA006000200030079800D2
:1027B000A0CAB3008CE9B70050C5B3008DE9B700DB
:1027C0000040EB008EE9B700B0C1B3008FE9B7005D
:1027D0003AFF070090E9B7000040EB0091E9B7002D
:1027E0000000EB00200798000F0037003E0190002A
:1027F0002E009000E6004000D089200000804000BC
:1028000090407800C0982000000041000148780006
:102810003E0090000000E800300798002E00900075
:102820000000E800200798002E009000FA0F5000EA
:10283000EEFF3400E2012000C198200010C0B30078
:1028400039FF0700000F78001E007800304798001D
:102850001E0078004800DE0020479800E0012000BC
:1028600030079800BE009000C09820000080400013
:10287000BE409000014878003E0090008000E800D3
:10288000C098200000804000AE40900001487800D1
:10289000B001200086150200000000000080FA0050
:1028A000000006000000FA00EDFE0700F18820009D
:1028B0009140780050CAB30080CF500012003A0017
:1028C000804A80000000E00020003A00904A80002A
:1028D0000000E0001D00320010002000804A880047
:1028E0000000EB00F04888000000EB00904A8800F0
:1028F00010C0B300E8170200000000002E1702000D
:102900000000000011003700F1882000914078009D
:10291000A0C5B30080CF500002003A001000200094
:10292000904A8800A03E83000000E00007003A00C3
:1029300023C2BF00624060000004E00003003A00D0
:1029400098FF0700F2150200000000000080FA0066
:10295000000006000000FA00104480000000E000C3
:1029600008003A0010002000504C88000000EB00E6
:10297000905088000000EB00805088000080EB0041
:1029800010448800504C8000E10F50002A003A00AB
:102990008038210020448800D2C9BF00E14F500098
:1029A00015003A00019D200091407800A0CAB300B4
:1029B00080CF50000B003A00119D2000914078001C
:1029C00050C5B30080CF500006003A0072012000CD
:1029D000019D200020C0B300D3FE07000000E000EE
:1029E00003003200F2150200000000001200370060
:1029F000ACFF070010003700D2C9BF00ED4F5000F8
:102A00000B003A00A03E83000000E0000A003A00FC
:102A100023C2BF00624060000004E00006003A00EC
:102A200016FF0700F2150200000000000200370048
:102A3000F215020000000000204480000000E000C9
:102A400003003C000000EB00704A880002003700E1
:102A500010002000704A88000080FA000000060084
:102A60000000FA0010002000001188000000EB00B8
:102A700010118800E062A900D5E2A900E042A90097
:102A8000DE62A900DE42A800D3E2A800D3C2A800FB
:102A90002062A9004001200040118800112220007E
:102AA00091407800C0CFB30000C060000014A000C7
:102AB00021E2B70022C2BF00F043B20022E2B70019
:102AC00023A2A90023E2A9008580A9008560A900AE
:102AD0008C20A9009580A8009560A8002162A8001C
:102AE0002002A900012220009140780090CFB3007D
:102AF00000C0600020E2B70020C2A90021E2A800C7
:102B00002342A8000080FA00000006000400FA003A
:102B100010079800A03E8300E10F5000FDFF320037
:102B20000000EB00000F7800010037001E0FE800E6
:102B3000F07022009E0F1000FCFF340010002000F7
:102B4000A03E8B001E00900065004000604E880093
:102B500010002000704E8800C098200010407800BF
:102B60000000FB0020118800604E80000000E9009A
:102B7000604E88000080FA0000000600809FBE00C2
:102B80000200FA00604E80000000E00004003A00FD
:102B9000000000000000EB00A03E8B000D0037009D
:102BA000714E8000C0982000614078000000FB005A
:102BB000000F7800704E80000000E800704E880022
:102BC000604E80000000E900604E88001E00780022
:102BD000201188008580A9000080FA004F00BE0007
:102BE000004006000200FA000000EB00000F780031
:102BF0000500370082508000019D20000040EB005E
:102C000000F178001E0FE800600120009E0F100008
:102C1000F8FF34000000EB00504C88000000EB008F
:102C2000805088000080FA0000000600809FBE00EF
:102C3000821F78000400FA0022C2BF0062406000D8
:102C40000004E000710032002222A9006F0037006A
:102C5000E03E83000000E0002500320030118000DB
:102C6000000F7800500A20009E0F100007003A0065
:102C7000B13E8300500A2000808F50000E003A00C1
:102C800010002000C03E8B0016003700A005200079
:102C90009E0F100008003A00B13E8300A0052000FE
:102CA000808F500004003A000000EB00C03E8B0013
:102CB00010002000D03E8B00C03E83000000E000EA
:102CC00008003200414C80001E00780080487800E7
:102CD0000100E800404C8800F03E83000000E8005E
:102CE000F03E8B001E007800B03E8B00470037009E
:102CF000504C8000E10F500008003A0002003700FD
:102D000030118000000F780022C2BF0061406000D7
:102D10000004E000FAFF3A00410037003011800063
:102D2000000F7800401F2000C04B8800C003200027
:102D30001044880090508000100798001E009000FA
:102D4000E10F5000170032001E009000E10F50000C
:102D5000040039001E009000E20F50001F003200F6
:102D60002A0037000000EB0080508800A00A2000F5
:102D70009E0F100025003A00825080001E0078004F
:102D800080407800009D2000017178001000200034
:102D900090508800805080000000E800805088003B
:102DA0001A003700500520009E0F100017003A004F
:102DB000825080001E00780080407800009D200036
:102DC0000171780020002000905088008050800021
:102DD0000000E800805088000C003700825080001E
:102DE0001E00780080407800009D2000017178006E
:102DF00081508000900F2000808F500003003E0023
:102E0000805080000000E8008050880022C2BF008F
:102E1000614060000004E0008DFF3A008560A90079
:102E20000080FA004F0178004F00BE00004006000D
:102E3000801F78000000FA0022C2BF0062406000DC
:102E40000004E000010032002222A9008C20A90029
:102E50000080FA004F007800004006000000FA00F1
:102E60000000EB00B03E8B000000EB00D03E8B007A
:102E70000000EB00C03E8B0040A12000404C8800C9
:102E80000000EB00F03E8B0010002000E03E8B00C5
:102E90000080FA00000006000200FA00D03E830025
:102EA0000000E000170032009580A9009560A9009D
:102EB00021E2A9000000EB00D03E8B00F03E830031
:102EC0000000E900F03E8B00F03E83000000E900C6
:102ED000F03E8B00F03E830052A12000800178007C
:102EE0001100200080CAB300140502000000000099
:102EF0000000E0000300320010002000000F780006
:102F0000020037000000EB00000F78001E00780080
:102F10000080FA00000006000000FA0043002000D4
:102F200042A120008000EB0080CAB300140502001B
:102F3000000000000080FA00000006000600FA0011
:102F400060EC290004000900305F78005E00B100E9
:102F5000430020000E0178008000EB0080CAB3001F
:102F600014050200000000000080FA0000000600C6
:102F70000000FA00D03E83000080FA000000060046
:102F80000200FA0035C9BF000004E0000B00320067
:102F9000F1498000803E2000808F500007003600FD
:102FA000F149800070BB2000808F500003003E007C
:102FB000F0498000000F7800020037000000EB00AD
:102FC000000F78001E0078000080FA000000060064
:102FD0000200FA00004F78001E40780031E9B70087
:102FE0000080FA00000006000000FA000000EB007C
:102FF0008008880084E0A900710A200091407800D0
:10300000F0C8B30000C0600001C4B300014070000C
:10301000A7E0B70094E0A8001021A900011120004A
:1030200091407800F0CCB30000C0600001C2B30052
:103030000140700010E1B7001027200060088800F0
:103040001061A90011E1A8000080FA00000006004C
:103050000000FA000000EB00900888008500A9003D
:10306000810A20009140780080CFB30000C060004A
:103070000024A000A8E0B7009500A8001221A90034
:103080002111200091407800F0CCB30000C0600016
:1030900012E1B700E03F20007008880013E1A800AB
:1030A0000080FA0000000600809FBE000000FA00C9
:1030B000E04880000000E0000B003A0091498000E9
:1030C000803E2000808F500004003400100020005B
:1030D000E04888000000EB0090498800904980009B
:1030E0000000E8009049880031C9BF000004E000FA
:1030F000120032009149800020032000808F500090
:103100000B00340030C9BF000004E00002003200B0
:10311000E102A80001003700E102A90030C9BF00A8
:1031200000C0EA0030E9B7000000EB0090498800D9
:10313000904980000000E800904988000049800024
:103140000000E00003003200004980000000E900B8
:1031500000498800104980000000E00003003200B0
:10316000104980000000E9001049880020498000D3
:103170000000E00003003200204980000000E90068
:1031800020498800304980000000E0000300320040
:10319000304980000000E900304988004049800043
:1031A0000000E00003003200404980000000E90018
:1031B00040498800504980000000E00003003200D0
:1031C000504980000000E9005049880084E0A900CF
:1031D0000080FA004F00BE0000400600809FBE0045
:1031E000821F78000000FA0034C9BF000004E0002C
:1031F00031003200C04980000000E800C04988006A
:1032000010C0B30035E9B700C1498000E049800033
:10321000808F50004E003400E04980007400400070
:10322000E0498800B04980000000E800B04988000B
:10323000B0498000E80F500003003400B04980001E
:10324000EA0F50000F003400D5C2BF00624060009A
:103250000004E00005003200004A8000114A8000AE
:103260000000A000004A8800114A8800004A80003F
:10327000114A80000000400081804800004A880018
:10328000114A8800B0498000F20F5000300034002D
:10329000004A8000114A80004E09DD004200DE0035
:1032A00000007100C288DE00F04988000040EB0099
:1032B00034E9B70026003700D5C2BF006240600085
:1032C0000004E00007003200C1498000C012200065
:1032D000808F50001300340010002000D049880077
:1032E000100037000000EB00C0498800D049800082
:1032F0000000E0000B0032000000EB00B049880045
:103300006000B800004A8800114A88000000EB0005
:10331000D0498800E0012000E049880010C0B300D7
:1033200034E9B700C149800080BB2000808F500085
:10333000040034000000EB00C04988000040EB00AE
:1033400035E9B700C04980000000E800C0498800A6
:103350008500A9000080FA004F0178004F00BE00F0
:10336000004006000000FA00DC42A900DC62A9006F
:10337000DC82A900DCE2A900E302A900E802A900BE
:103380005019800001C02900010070005019880008
:10339000C1C2A800CDC2A800D2E2A900D322A800D1
:1033A000D342A800D362A800D382A800D3E2A80029
:1033B000D842A900D862A900D882A900D8E2A90001
:1033C000DE02A800DE22A800DF02A900E402A900B4
:1033D000E422A800D302A900E4C2A900E4E2A90003
:1033E000E502A900E522A9000080FA00000006001D
:1033F0000600FA00E0488000E20F500012003A0098
:1034000087C9BF000004E000060032004296200099
:1034100031C1B30020C4B300BE04020000000000AC
:1034200006003700229620001241780041C1B30007
:1034300020C4B300F60402000000000087C9BF00EA
:1034400000C0EA0087E9B700704A80000000E00091
:103450000E02320001892000914078002EC9BF0081
:1034600080CF50002300320090C8BF002EE9B70083
:103470002EC9BF00E24F5000030032002EC9BF002A
:10348000E74F500003003A000000EB00A040880026
:103490000200370010002000A04088002EC9BF00A5
:1034A000E54F50000C0032002EC9BF00E64F50001F
:1034B000090032002EC9BF00E84F5000060032005C
:1034C0002EC9BF00E94F5000030032002EC9BF00D3
:1034D000EA4F500003003A0010C0B30085E9B7007E
:1034E000020037000040EB0085E9B7000811020038
:1034F00000000000F0458000404B8800404B8000F9
:103500000E03020000000000504B8800504B80006A
:1035100000017800F00F200080006100ADC8BF00FE
:103520006040600001407000ADE8B700C810DE00E8
:10353000AEC8BF006040600001407000AEE8B70058
:1035400000468000404B8800404B80000E03020084
:1035500000000000504B8800504B800000017800B4
:10356000F00F200080006100AFC8BF006040600025
:1035700001407000AFE8B700C810DE00B0C8BF005F
:103580006040600001407000B0E8B700C017020062
:1035900000000000100798001E0090000000E000EE
:1035A0000D003A0064C9BF000080FB004300DE004C
:1035B00061406000614060004301DD00618A2000DD
:1035C0009140780070CFB30000C0600002407000EE
:1035D000A6E8B700070037009E009000008C20008E
:1035E000808F500002003600A668A8000100370056
:1035F000A668A9009E009000F00F20008080600067
:10360000B7C8BF006040600001407000B7E8B70075
:103610001E009000C800DE00B8C8BF006040600017
:1036200001407000B8E8B700E0C2BF006140600030
:1036300061416000418A200091407800E0CFB300F2
:1036400000C0600002407000A4E8B700E0C2BF0004
:103650000080FB000000D10061406000614060001C
:1036600000414000418A200091407800D0CFB30053
:1036700000C0600002407000A4E8B700E6C2BF00CE
:103680000080FB000000D1006140600061406000EC
:103690004201DD00418A200091407800B0CFB300A4
:1036A00000C0600002407000A4E8B70064C9BF0019
:1036B0006140600061416000618A200091407800B3
:1036C000E0CFB30000C0600002407000A6E8B70081
:1036D00064C9BF000080FB000000D10061406000B1
:1036E0006140600000414000618A20009140780004
:1036F000D0CFB30000C0600002407000A6E8B70061
:10370000D5C2BF000080FB004600DE0061406000C3
:10371000614060004301DD00418A20009140780053
:1037200070CFB30000C0600002407000A4E8B70092
:1037300064C9BF000080FB004200DE006140600001
:10374000614060004201DD00618A20009140780004
:10375000B0CFB30000C0600002407000A6E8B70020
:1037600064C9BF000080FB004600DE0061406000CD
:10377000614060004601DD00618A200091407800D0
:10378000F0CBB30000C0600002407000A6E8B700B4
:10379000D5C2BF000080FB004200DE006140600037
:1037A00061416000518A200091407800E0CFB30071
:1037B00000C0600002407000A5E8B700D5C2BF009D
:1037C0000080FB004300DE0061406000614060005B
:1037D00000414000518A200091407800D0CFB300D2
:1037E00000C0600002407000A5E8B700D5C2BF006D
:1037F0000080FB004400DE0061406000614060002A
:103800004201DD00518A200091407800B0CFB30022
:1038100000C0600002407000A5E8B70064C9BF00A6
:103820000080FB004400DE006140600061406000F9
:103830004401DD00618A200091407800F0CEB300A1
:1038400000C0600002407000A6E8B70064C9BF0075
:103850000080FB004500DE006140600061406000C8
:103860004501DD00618A200091407800F0CDB30071
:1038700000C0600002407000A6E8B70064C9BF0045
:103880000080FB004700DE00C700DD00A6C8BF00C7
:103890000074A10001407000A6E8B7001246800045
:1038A000F00F200080006100B5C8BF0060406000DC
:1038B00001407000B5E8B700C810DE00B6C8BF0010
:1038C0006040600001407000B6E8B7008CC8BF00DF
:1038D0006140600061416000318A200091407800C1
:1038E000E0CFB30000C0600002407000A3E8B70062
:1038F0008CC8BF000080FB000000D1006140600068
:103900006140600000414000318A20009140780011
:10391000D0CFB30000C0600002407000A3E8B70041
:103920008CC8BF00704060000004E000020032005C
:103930006269A800020037006289A9006269A900D3
:1039400099C8BF000080FB003040880030408000F4
:103950000000E00001003A006289A9008EC8BF00A3
:103960000080FB004700DE00C700DD0062C9BF0029
:103970000074A1000140700062E9B7008CC8BF006C
:10398000614060000004E00007003A008CC8BF00FE
:1039900061406000C700DD00D4C2BF000074A10018
:1039A00001407000D4E2B7008CC8BF0062406000E4
:1039B0000004E0000B003A008CC8BF000080FB0050
:1039C0000000D1006140600061416000612E200074
:1039D00091407800E0CFB30000C06000024070006A
:1039E000E6E2B7002EC9BF00E44F500002003A00E3
:1039F0006A0E02000000000097C8BF000080FB00B4
:103A0000A00D0200000000002EC9BF000004E0006D
:103A10000D0032002EC9BF00E24F50000A003200F4
:103A20002EC9BF00E74F5000070032002EC9BF006B
:103A3000E44F50000400320098C8BF000080FB0033
:103A4000F60D0200000000008EC8BF000080FB00E1
:103A50004200DE0061406000614060004201DD0024
:103A60002196200091407800B0CFB30000C06000E4
:103A70000240700062E9B7008EC8BF006440600079
:103A80000004E0000300320010C0B30066E9B70094
:103A90000200370020C0B30066E9B7008DC8BF0040
:103AA0000080FB004600DE00614060006141600074
:103AB000112E200091407800E0CFB30000C06000DC
:103AC00002407000E1E2B70093C8BF008080FB00B5
:103AD00094C8BF000080FB004800DD0001007000BA
:103AE000004C880095C8BF008080FB0096C8BF00CE
:103AF0000080FB004800DD0001007000104C8800D1
:103B00009AC8BF000004E000080032009AC8BF0055
:103B100076E9B7009AC8BF008040780040C6B3007D
:103B20000140500077E9B700040037000040EB0087
:103B300077E9B7000040EB0076E9B70062C9BF0043
:103B40000080FB004400DE006140600061416000D5
:103B5000818A200091407800E0CFB30000C060006F
:103B600002407000A8E8B7008DC8BF000080FB00CD
:103B70004600DE0061406000614060004501DD00FC
:103B8000318A200091407800F0CDB30000C0600081
:103B900002407000A3E8B700D4C2BF000080FB0061
:103BA0004700DE00614060004501DD00518A2000D1
:103BB00091407800F0CDB30000C06000024070007A
:103BC000A5E8B700E6C2BF00614060006140600048
:103BD0004601DD00518A200091407800F0CBB3000F
:103BE00000C0600002407000A5E8B70086C9BF00B1
:103BF000504798008040EB004147980040C6B30012
:103C0000DE40900080CF50000200360010C0B300AC
:103C100040479800DE4090000140E80086E9B70088
:103C20004E4090000004E00056003200E048800062
:103C3000E20F500053003A00429820008040EB0011
:103C4000A0C9B300BE0402000000000084C9BF0088
:103C50000081FB00F00F200080006100ABC8BF00B6
:103C60006040600001407000ABE8B700C810DE00A3
:103C7000ACC8BF006040600001407000ACE8B70015
:103C80000040EB0086E9B7003E003700F0458000B9
:103C9000404B8800404B80000E03020000000000F3
:103CA000504B8800514B800050092000808F5000FD
:103CB00019003400514B800050282000808F5000A4
:103CC00015003C006209A80050932700D0080200AC
:103CD000000000002EC9BF000004E0001600320002
:103CE0002EC9BF00E24F5000130032002EC9BF00A2
:103CF000E74F5000100032002EC9BF00E44F5000C3
:103D00000D0032006229A80050932700DE0802004F
:103D100000000000080037006209A9000000EB0065
:103D2000D0080200000000006229A9000000EB009A
:103D3000DE080200000000006269A9006289A90093
:103D400062E9A900D4E2A900E602A900600020000F
:103D5000000F780060002000000F78000600370098
:103D60009E00780060882000808040000040EB00CA
:103D7000804878001E0FE800610120009E8F10002F
:103D8000F7FF34000080FA00000006000000000089
:103D900000000000000000006C09000008000000A6
:103DA0000200000010111200131415001D1E000067
:103DB000BE08000032000000000000000008000003
:103DC0008600000002000000000001000001000069
:103DD00000000000000000000000000000000000E3
:103DE00000000000000100000400020000030000C9
:103DF00004000100000300000200040000030000B2
:103E0000000014000014000014003C00002D00000D
:103E100055001400001900002200140000000000EA
:103E20003C003C00003C00003C00640000640000DA
:103E30003C003C00003A000032000000001400008A
:103E4000140014000050000046006400001400003C
:103E50001900280000190000000050000050000068
:103E6000500050000064000064005000004B00004F
:103E700042003F0000000000000000007409000044
:103E800006000000000000001C09000014000000F3
:103E9000020000000000010000FA0000B80B320030
:103EA000000300000000000000000000000000000F
:103EB000540900000E000000020000000000000095
:103EC00000000000000000000000000000000000F2
:103ED0007A090000060000000000000080090000D0
:103EE0000400000002000000F401F40001000000E2
:103EF000F00800002C000000000000004409000051
:103F0000100000000200000031353100303237006F
:103F100000000000000000000000010000000000A0
:103F2000860800003800000000000000D467000090
:103F30000C00000002000000000000000000000073
:103F40000000000000000000880900004C5E000036
:103F50000000000030090000140000000200000012
:103F6000FF00000000000000000000000000000052
:103F700000000000000000000000000084090000B4
:103F8000040000000200000000000000FF0000002C
:103F9000620900000A0000000000000000000000AC
:103FA00091018800800078000000EB0015003700C8
:103FB000E280400032A0B4009101BA00E2804000EB
:103FC00032A0B4009102BA00E280400032A0B400F6
:103FD0000002EB00472BDE00F507B200602CE10089
:103FE00004003A000059EB008301E900FDFF3E00A8
:103FF000040037006128E100010032000082EB007C
:10400000040007001101BA000200E000E8FF3A00D6
:10401000000006003159BA008301E9000C003200AB
:104020002159BA008301E900080032000400E000D1
:1040300003003A00E280400032A0B400F5FF3700F0
:1040400011D9BA008301E900FAFF3A008100E800C3
:10405000E180400032A0B400000006000F7E260080
:104060000EFF27000E018800000000000C00070072
:10407000C0EC210001002000C9FF07000000200063
:104080000000E0000200320000000200000000001A
:10409000CE0C0200000000000040DA000000FE002C
:1040A0004440A900600020000000E000030032004E
:1040B00000002000A00188004440A8000000060085
:1040C0000040DA000000FE00FFFFFF00FFFFFF00DE
:1040D000FFFFFF00FFFFFF00FFFFFF00FFFFFF00EC
:1040E000FFFFFF00FFFFFF00FFFFFF00FFFFFF00DC
:1040F000FFFFFF00FFFFFF00FFFFFF00FFFFFF00CC
:10410000FFFFFF00FFFFFF00FFFFFF00FFFFFF00BB
:020000040005F5
:1017A000FFFFFF00FFFFFF00FFFFFF006F73000060
:1017B0006174000000000000000000000000000054
:1017C0000000000000000000000000000000000019
:1017D0000000000000000000000000000000000009
:1017E000000000000000000000000000FFFFFF00FC
:1017F00002010000040300002E200400000000008D
:101800001800FA000000EB0010CF89000040EB0048
:1018100034E0B7004440A80060022000303A88005D
:101820000000EB00203A88004227A90040A7A8004A
:1018300042C7BF000042B2000004E000FCFF3200DB
:101840001C94020002000000049302000200000049
:10185000F491020002000000020A23000180280027
:10186000200020008892020002000000C0C4810015
:10187000D1C48100028A23000089BE00E0C4810037
:10188000F1C48100028A23002001980031019800F0
:1018900080C4810091C48100F2FF2F00030020006A
:1018A000000278008102780002007800830078004E
:1018B00000016200018062006102B8002407980004
:1018C000350798002E009000BE009000C000DD009B
:1018D0000000200020079800310798002E0090009B
:1018E000BE0090006112B8002407980035079800E8
:1018F0002E019000BE0190000200700083807000F5
:10190000C003DD0006002000A0C48100B1C4810036
:10191000F2FF2F000300200000027800810278000F
:1019200002007800830078000001620001806200FC
:101930006102B80044079800550798004E009000D7
:10194000DE009000C000DD0000002000400798008D
:10195000510798004E009000DE0090006112B80020
:1019600044079800550798004E019000DE01900052
:1019700002007000838070000600400087804800ED
:1019800080C5890091C589000000EB001007980010
:10199000220037009E0190001E00900022002000CF
:1019A000110009000200D800B01EB000C200DD0026
:1019B000000A2300008040001000BE00480ADD003D
:1019C0004800DE0000007200C808DE008040780099
:1019D000C08B2300817178001E0090008001E80018
:1019E0001E00900022002000110009000200D80013
:1019F000B01EB000C200DD00000A230000804000DD
:101A00001000BE0080407800C08B230081717800F8
:101A10001E0090000080E800100798001E00900053
:101A2000FF0F5000DBFF3400B18D23000040EB00BE
:101A3000804878000000EB00E0C689000000EB0061
:101A400010079800070037001E019000E18D230069
:101A50000040EB0000F178001E0090000000E8005C
:101A6000100798009E009000F00F2000808F50001B
:101A7000F5FF3400218622000040EB00804878000A
:101A80000000EB000292020002000000804078009B
:101A9000409E230001487800000037000060FE00EF
:101AA000409E23009040780020C4B30080CF5000B7
:101AB00084013A00CF0037000000EB00A04289000B
:101AC0000186220000C0EB0080487800408622009A
:101AD0005894020002000000000F78000060FE0031
:101AE0001E00E0008A003200E0C681000000E00035
:101AF00045003A0080862200104078000080FB00FC
:101B0000E0C689007043810081438100A0C589003F
:101B1000B1C589005043810061438100C0C589007F
:101B2000D1C589000000EB00100798000C003700B9
:101B30001E0190001E009000EE0040004086220032
:101B4000008040001040780080407800C08B230067
:101B5000017178001E0090000000E8001007980056
:101B60001E009000FF0F5000F1FF3400B08D2300E5
:101B70008040EB0001487800020A23000180280021
:101B8000200020008892020002000000801E200039
:101B9000100798000A0037001E009000C200DD0008
:101BA000000A230000814000F0FF2F00F10F200009
:101BB0000089BE001E0090000000E8001007980099
:101BC0009E009000F01F2000808F5000F2FF340034
:101BD0000060FE000180280020002000AA92020080
:101BE00002000000020A23000180280020002000DB
:101BF000D092020002000000118622000040EB009B
:101C000080487800770037008086220010407800F6
:101C10008080FB00E0C68100808F500035003A00D4
:101C20007243810083438100A0C58100B1C581005A
:101C3000800F5100818F59002E003A0052438100DD
:101C400063438100C0C58100D1C58100800F510070
:101C5000818F590027003A007086220010407800DA
:101C60000080FB008000E900E08D230061407800E7
:101C70000004E0001F003A00108622008040EB00C4
:101C8000014878000000EB001007980015003700AD
:101C90009E009000C08B2300614078000081FB0013
:101CA0001E009000EE0040004086220000804000B0
:101CB000104078000000FB00800F51000600320049
:101CC0001186220000C0EB008048780001862200C7
:101CD0000040EB00804878001E0090000000E80003
:101CE000100798001E009000FE0F5000E8FF34001F
:101CF0003C0037001186220000C0EB0080487800CD
:101D0000018622000040EB00804878003500370053
:101D1000018622000040EB008048780011862200F6
:101D200000C0EB00804878002E0037004089220078
:101D30004495020002000000000F78001E00E00041
:101D400007003A001186220000C0EB0080487800AE
:101D5000018622000040EB00804878002000370018
:101D6000D04481000000E00007003A001186220004
:101D700000C0EB00804878000186220000C0EB0024
:101D80008048780016003700B0448100C1448100CB
:101D9000E00F5000E08F580009003A00F044810045
:101DA00001458100828A23000089BE001045810020
:101DB00021458100828A230020019800310198008A
:101DC00040892200DE97020002000000000F780028
:101DD00011002000803E200010930200020000004D
:101DE0000060FE0010862200104078000004E00031
:101DF000CEFF320010862200104078000004E00080
:101E00002DFF3200A0428100E10F400003003A00A4
:101E10001186220000C0EB00804878001086220066
:101E2000104078000004E000E0003200008622004C
:101E3000104078000004E000DC00320070862200D0
:101E4000104078000080FB000001E900E18D2300D4
:101E500000C0EB0000F178002186220000C0EB00FA
:101E6000804878000000EB00100798000B00370056
:101E70001E009000E18D230060C078000004E000A7
:101E800003003A00218622000040EB0080487800E1
:101E90001E0090000000E80010079800E1C68100D5
:101EA0001E009000810F5000F1FF350020862200B7
:101EB000104078000004E000BC003200020A230059
:101EC000018028002000200088920200020000000B
:101ED000808A23001000BE00C0C48900D1C48900DC
:101EE000808A2300B000900020009000E0C48900A8
:101EF000F1C4890070438100814381004008DE0005
:101F000001002000F2FF2F000300200000027800F3
:101F100081027800020078008300780000016200EE
:101F2000018062006102B80064079800750798009C
:101F30006E009000FE009000C000DD000000200058
:101F400060079800710798006E009000FE009000F6
:101F50006112B80064079800750798006E01900040
:101F6000FE019000020070008380700080C4890030
:101F700091C489007043810081438100F2FF2F00EA
:101F8000030020000002780081027800020078003F
:101F90008300780000016200018062006102B800E5
:101FA000040F9800150F98000E0890009E089000EE
:101FB000C000DD0000002000000F9800110F980005
:101FC0000E0890009E0890006112B800040F98005F
:101FD000150F98000E0990009E09900002007000F5
:101FE00083807000A0C48900B1C489000000EB00A8
:101FF00010079800200037001E00900022002000EB
:10200000110009000200D800B41E200000024200A6
:102010001E009000EE00400040862200008040003C
:10202000104078000000FB004800DD0080007800D0
:1020300000F02F00008160001E0090000000E8000A
:10204000EE004000408622000080400010407800F2
:102050000000FB00000041006101B800C220DD006B
:10206000000A2300008040000288BE001E0090008D
:102070000080E800100798001E009000FF0F50003D
:10208000DDFF34000060FE000180280020002000F9
:10209000AA92020002000000020A23000180280028
:1020A00020002000D09202000200000081C7B3008F
:1020B0000000EB005E920200020000000000FE0043
:1020C0003A003700020A2300018028002000200087
:1020D0008892020002000000C0C48100D1C48100C7
:1020E000028A23000089BE00E0C48100F1C481009F
:1020F000028A23002001980031019800008A230001
:102100001000BE0002002000F30F20000002780043
:1021100081027800020078008300780000016200EC
:10212000018062006102B800240F9800350F98000A
:102130002E089000BE089000C000DD0000002000C6
:10214000200F9800310F98002E089000BE089000D4
:102150006112B800240F9800350F98002E099000E6
:10216000BE09900002007000838070000200200011
:1021700043002000820F5000838F580004003A0073
:1021800040A7A9000060FE00FC8B040002000000D4
:10219000C8930200020000000000EB00A04289008A
:1021A000118622000040EB00804878001086220053
:1021B000104078000004E00038FE320009003700CB
:1021C00000862200104078000004E0000300320086
:1021D000F29302000200000002003700DA930200CE
:1021E0000200000072920200020000000000E00005
:1021F000F3FF3A0029FE37000000FA000060FE00FD
:102200000080FA00004006000000FA00E182A90008
:10221000DEA2A900DE82A800DF82A900DFA2A8005A
:10222000A0022000C01188000000EB00801188008F
:102230000000EB009011880031E2A8003342A800B2
:1022400087C0A9000080FA00000006000200FA0022
:10225000004F780033C2BF00624060000004E0001D
:10226000FCFF3A001E00FB00A01188000080FA006D
:10227000000006000200FA0087C0BF000044B20060
:102280000004E0000300320010002000000F78007E
:10229000020037000000EB00000F78001E007800FD
:1022A0000080FA00000006000200FA0087C0BF00AC
:1022B0000044B2000004E000FCFF3200B0118000D6
:1022C000004F780087C0A9001E00FB000080FA00C4
:1022D000000006000200FA00000F7800040037003A
:1022E0001E00780010407800D8FF07001E0FE8009D
:1022F0001E007800104078000004E000F8FF3A006B
:102300000000EB000080FA00000006000400FA0064
:10231000204798002E409000004F780030C6B30050
:102320009E4F1000060036001E80FB004206200073
:10233000110009000280D8000043B000C3FF07006D
:102340009E4178001E80FB0042062000110009001B
:102350000280D8008080FB00400620000088B90081
:1023600000C05100004F780090C0B3009E4F100095
:10237000060036001E80FB00A200200011000900AC
:102380000280D8000043B000B0FF07009E417800F3
:102390001E80FB00A2002000110009000280D8006E
:1023A0000080FB006A00B90000C05100004F7800B7
:1023B0001E4078000043B000A4FF07000080FA0030
:1023C000000006000000FA000080FA00004006004D
:1023D0000000FA000080FA00004006000000FA0049
:1023E0000080FA00004006000000FA0040062000CD
:1023F000E69D0200020000002B0007000080FA00AA
:10240000000006000400FA00100798001E0090006B
:10241000020007000080FA00000006000400FA0035
:1024200010079800814280001E009000808F5000AD
:102430000C003E00814280000000220080804000AD
:102440001E009000808F50000E003E0081428000F0
:10245000000022008080400080428000808F500079
:102460000800360023852000020022009E00900014
:1024700080CAB3005AA20200020000001E009000B1
:1024800080428800814280001E0090008100500040
:102490002085200061407800004F78001E00FB007E
:1024A0000080FA00000006000000FA000080EB0047
:1024B000804288000080FA00000006000400FA0054
:1024C000000F7800214798002E4190009E00780070
:1024D00080CAB30000A20200020000000080FA00DF
:1024E000000006000200FA0080CAB300609F0200EC
:1024F00002000000000F78001E00E00001003A001A
:10250000E9FF07001E0078000080FA0000000600C6
:102510003200F80090018800032020001119BA0051
:102520003199BA008301E900FCFF3A000000EB009A
:102530003200F900000006004800DD008301400081
:10254000B2197800B21978008100E900FCFF3A0066
:10255000000006003200F800900188008108BB00EE
:1025600027042400073B880007F0A0000500FC00BA
:1025700050052000303B8800A00A2000303B880036
:10258000073B8800000000000000000061E7AF008A
:10259000FEFF37000000EB003200F90000000600EB
:1025A0003200F8009001880085002000030420001C
:1025B000B208BB00B298BB008301E900FCFF3A00FF
:1025C00017002400073B880007F0A0000500FC006E
:1025D00050052000303B8800A00A2000303B8800D6
:1025E000073B8800000000000000000061E7AF002A
:1025F000FEFF37008502E900ECFF3A000000EB0027
:102600003200F900000006000000FA00D4C2A90060
:10261000D2C2A900100020000080FA0000000600CD
:102620000C00FA0040079800510798005E009000E7
:10263000100798004E0090000000E00019003A00DA
:102640000080EB0020079800120037000000EB002C
:102650003007980007003700D4C2A900D4C2A900EF
:10266000D4C2A900D4C2A9003E0090000000E80036
:1026700030079800BE0090002E009000808F500020
:10268000F5FF39001E0090000000E90010079800D7
:102690000060FE001E0090000000E000EBFF3A002A
:1026A000370037005E009000C800DD004E0090004B
:1026B0004801DE00110009008280D8001007980050
:1026C0004E0090000000D100000F78002900370074
:1026D000E102A9000000EB00300798000B00370072
:1026E000D4C2A800D4C2A900D4C2A800D4C2A900F0
:1026F000D4C2A800D4C2A900D4C2A800D4C2A900E0
:102700003E0090000000E800300798003E00900076
:102710009E0F5000F2FF39000060FE00E102A800A9
:102720000000EB00300798000B003700D4C2A8006F
:10273000D4C2A900D4C2A800D4C2A800D4C2A800A0
:10274000D4C2A900D4C2A800D4C2A9003E009000FF
:102750000000E800300798003E0090009E0F5000F7
:10276000F2FF39001E0090000000E90010079800F9
:102770000060FE001E0090000000E000D4FF3A0060
:10278000D4C2A900100020000080FA00000006005A
:102790000000FA0041062000409C2000A0FF070036
:1027A000410120000000EB009DFF07000080FA00BF
:1027B000000006000000FA00410120000000EB00CC
:1027C00097FF07000105200000E2240094FF0700A6
:1027D000810220000000EB0091FF07000080FA005A
:1027E000000006000000FA0041062000409C200086
:1027F0008BFF0700410120000000EB0088FF07006D
:102800000080FA00000006000000FA00A10020008D
:102810000000EB0082FF070081022000409C2000A6
:102820007FFF0700210320000000EB007CFF070072
:102830000080FA00000006000000FA00DC42A90057
:10284000DC62A900DC82A900DCE2A900E302A900A5
:10285000E802A9005019800001C0290001007000A1
:1028600050198800C1C2A800CDC2A800D2E2A900B8
:10287000D322A800D342A800D362A800D382A80024
:10288000D3E2A800D842A900D862A900D882A90042
:10289000D8E2A900DE02A800DE22A800DF02A9001B
:1028A000E402A900E422A8000080FA00000006006B
:1028B0000800FA00200798000060FE002185220031
:1028C0000040EB0080487800AE00900000C0EB00B4
:1028D00080487800C699020002000000800078005D
:1028E00020042000808F500012003A00C699020098
:1028F0000200000080007800C0042000808F50009B
:102900000C003A00C6990200020000008000780026
:1029100060042000808F500006003A00C699020033
:10292000020000008000780030052000808F5000F9
:10293000030032000000EB00300798004F00370022
:10294000C6990200020000000000E000030032000F
:102950000000EB003007980048003700C6990200DD
:1029600002000000E30F5000030032000000EB0003
:1029700030079800410037000060FE00C699020051
:1029800002000000804078002E0090003140980046
:10299000C699020002000000804078002E009000DE
:1029A00041409800F4990200020000002E019000BE
:1029B0003001980041019800F499020002000000E3
:1029C0002E01900050019800610198000000EB007A
:1029D000100798000F003700C6990200020000009F
:1029E000000F78001E0190001E00780080417800E2
:1029F000AE0090006E0041000100400003487800E6
:102A00001E00E000060032001E0090000000E800FA
:102A1000100798001E009000FF0F5000EEFF3400DA
:102A200020852200104078000080FB00000F780015
:102A300020852200904078002E0090006168980068
:102A4000C69902000200000080007800F00F20000C
:102A5000008060009E0F5000030032000000EB0079
:102A60003007980005003700AE0090000040EB00F2
:102A7000804878000080EB00300798003E0090000E
:102A80000080FA00000006000C00FA00881F7800A1
:102A9000400798000000EB00000F780010CF810085
:102AA0000000E80010CF890010CF8100FA0F50001D
:102AB00002003A001E80E8001007980021852200DD
:102AC0000040EB0080487800CE00900000C0EB0092
:102AD000804878000060FE00C699020002000000F5
:102AE000000F7800A00320009E0F100009003A009C
:102AF000CE0090000000EB00B0009800CE009000E7
:102B00000040EB00804878000080EB005007980000
:102B10005D003700500220009E0F100003003200BD
:102B20000000EB005007980057003700F4990200AE
:102B3000020000004E019000100198002101980051
:102B4000D09B020002000000800078004E00900040
:102B5000310098004E0090003000900032002000BC
:102B6000110009000280D800800078004E0090001B
:102B7000410098004E00900010019000A0019000CC
:102B8000F0FF250001002000800F5100818F5900C7
:102B9000020036001E80E800100798004E009000EA
:102BA000B000900000602000808F500003003600CD
:102BB0000000EB0050079800330037000000EB00E6
:102BC000300798000000EB00200798000F00370046
:102BD0003E049000049B0200020000000001BE00C1
:102BE000CE0090004240DD006A004000010040003D
:102BF0000288BE003E0090000000E8003007980008
:102C00002E00900063004000200798002E009000E6
:102C1000CE009000B1009000810F5000ECFF390011
:102C20000060FE0020852200104078000080FB003C
:102C3000000F78002085220010417800CE0090001F
:102C4000A08020000080400002487800C699020061
:102C50000200000080007800F00F2000008060007B
:102C60009E0F5000030032000000EB005007980058
:102C700005003700CE0090000040EB00804878004F
:102C80000080EB00500798005E0090004F04780031
:102C90000080FA00000006000200FA00000F780031
:102CA0000060FE00601E24006A9102000200000025
:102CB0001E00780030409000389D020002000000A5
:102CC000301F24006A910200020000001E007800FC
:102CD00040409000389D0200020000004020240087
:102CE0006A910200020000001E007800C0009000FF
:102CF000300090004808DE0001002000389D0200EE
:102D0000020000001E007800C0009000300090001B
:102D10004008DE0001002000389D02000200000093
:102D20001E007800C0009000300090004809DD00CF
:102D30004800DE0000007100C808DE00389D020077
:102D4000020000001E007800C000900030009000DB
:102D5000389D020002000000502124006A91020008
:102D6000020000001E007800E0009000500090007B
:102D70004808DE0001002000389D0200020000002B
:102D80001E007800E0009000500090004008DE0037
:102D900001002000389D0200020000001E007800A3
:102DA000E0009000500090004809DD004800DE007F
:102DB00000007100C808DE00389D0200020000001B
:102DC0001E007800E000900050009000389D020046
:102DD00002000000302224006A910200020000007C
:102DE0009E0078006E8040006A91020002000000A0
:102DF000702324006A91020002000000A023240036
:102E00006A910200020000000080FA000000060043
:102E10000400FA00100798000060FE00D023240090
:102E20006A910200020000001E009000A0009000C5
:102E3000100090004808DE0001002000389D0200CC
:102E4000020000001E009000A00090001000900002
:102E50004008DE0001002000389D02000200000052
:102E60001E009000A0009000100090004809DD00B6
:102E70004800DE0000007100C808DE00389D020036
:102E8000020000001E009000A000900010009000C2
:102E9000389D020002000000802524006A91020093
:102EA000020000001E009000300090004800DE008C
:102EB0008040780000C0EB0000C06000389D020038
:102EC000020000001E00900030009000389D0200BB
:102ED00002000000A02624006A9102000200000007
:102EE0000000EB00000F78002A00370000C2B3009A
:102EF00026910200020000001E0078009E00900053
:102F00004200DD006A004000010040001000BE00E9
:102F10004008DE0001002000389D02000200000091
:102F20001E0078009E0090004200DD006A00400014
:102F3000010040001000BE004809DD004800DE002E
:102F400000007100C808DE00389D02000200000089
:102F50001E0078009E0090004200DD006A004000E4
:102F6000010040001000BE00389D02000200000079
:102F70009E00780067806000E70F500003003A0071
:102F8000102824006A910200020000000060FE0088
:102F90001E0FE8001E0078009E009000C100900007
:102FA000810F5000D1FF3900602824006A9102008F
:102FB000020000000080FA00000006001A08FA0073
:102FC0004181200081004700800878000060FE00F9
:102FD000408120000000470010007800A000900011
:102FE000100090004008DE000100200070079800EB
:102FF000408120000000470010007800A0009000F1
:1030000010009000000F98008E08900000C02F0064
:1030100000806000600798000E0890004700DE0006
:1030200067006000500798000004200040079800E7
:10303000408120000000470010007800100190003F
:10304000A00190008040EB00908120000E00400025
:1030500001487800F0BC280021002000800F5100BA
:10306000818F59000400360013C0B3009281200004
:103070000E01410003497800408120000000470014
:103080001000780010019000A00190008040EB003B
:10309000808120000E00400001487800E0BF2A0037
:1030A00021002000800F5100818F590004003E0054
:1030B00013C0B300828120000E0141000349780053
:1030C000918120008E804000114178008181200094
:1030D0008E80400091407800014061000004E000D3
:1030E000050032008001EB00628120000E014100EA
:1030F0000309780042003700FE009000F00720002E
:10310000808F500037003E0074014700EE009000B1
:103110007E0090008892020002000000100F9800CC
:103120007E0090000000E0000B003A000E089000C6
:103130000000E00008003A00740047001001BE00E3
:103140002207980033079800740047002001900080
:10315000B0019000028FBE000060FE00F400470046
